{
  "_format": "hh-sol-artifact-1",
  "contractName": "CompliantAssetVault",
  "sourceName": "contracts/CompliantAssetVault.sol",
  "abi": [
    {
      "inputs": [
        {
          "internalType": "address",
          "name": "_verifier",
          "type": "address"
        },
        {
          "internalType": "address",
          "name": "_yieldToken",
          "type": "address"
        },
        {
          "internalType": "address",
          "name": "_kycSbt",
          "type": "address"
        },
        {
          "internalType": "address",
          "name": "_priceFeed",
          "type": "address"
        },
        {
          "internalType": "address",
          "name": "_registry",
          "type": "address"
        }
      ],
      "stateMutability": "nonpayable",
      "type": "constructor"
    },
    {
      "inputs": [
        {
          "internalType": "address",
          "name": "owner",
          "type": "address"
        }
      ],
      "name": "OwnableInvalidOwner",
      "type": "error"
    },
    {
      "inputs": [
        {
          "internalType": "address",
          "name": "account",
          "type": "address"
        }
      ],
      "name": "OwnableUnauthorizedAccount",
      "type": "error"
    },
    {
      "inputs": [],
      "name": "ReentrancyGuardReentrantCall",
      "type": "error"
    },
    {
      "anonymous": false,
      "inputs": [
        {
          "indexed": true,
          "internalType": "address",
          "name": "user",
          "type": "address"
        },
        {
          "indexed": false,
          "internalType": "uint256",
          "name": "tokenId",
          "type": "uint256"
        }
      ],
      "name": "AssetDeposited",
      "type": "event"
    },
    {
      "anonymous": false,
      "inputs": [
        {
          "indexed": true,
          "internalType": "address",
          "name": "user",
          "type": "address"
        },
        {
          "indexed": false,
          "internalType": "uint256",
          "name": "tokenId",
          "type": "uint256"
        }
      ],
      "name": "AssetWithdrawn",
      "type": "event"
    },
    {
      "anonymous": false,
      "inputs": [
        {
          "indexed": true,
          "internalType": "address",
          "name": "priceFeed",
          "type": "address"
        }
      ],
      "name": "OracleUpdated",
      "type": "event"
    },
    {
      "anonymous": false,
      "inputs": [
        {
          "indexed": true,
          "internalType": "address",
          "name": "previousOwner",
          "type": "address"
        },
        {
          "indexed": true,
          "internalType": "address",
          "name": "newOwner",
          "type": "address"
        }
      ],
      "name": "OwnershipTransferred",
      "type": "event"
    },
    {
      "anonymous": false,
      "inputs": [
        {
          "indexed": true,
          "internalType": "address",
          "name": "user",
          "type": "address"
        },
        {
          "indexed": false,
          "internalType": "uint256",
          "name": "identityCommitment",
          "type": "uint256"
        }
      ],
      "name": "UserVerified",
      "type": "event"
    },
    {
      "anonymous": false,
      "inputs": [
        {
          "indexed": true,
          "internalType": "address",
          "name": "user",
          "type": "address"
        },
        {
          "indexed": false,
          "internalType": "uint256",
          "name": "amount",
          "type": "uint256"
        }
      ],
      "name": "YieldClaimed",
      "type": "event"
    },
    {
      "inputs": [],
      "name": "BASE_APY",
      "outputs": [
        {
          "internalType": "uint256",
          "name": "",
          "type": "uint256"
        }
      ],
      "stateMutability": "view",
      "type": "function"
    },
    {
      "inputs": [],
      "name": "claimYield",
      "outputs": [],
      "stateMutability": "nonpayable",
      "type": "function"
    },
    {
      "inputs": [
        {
          "internalType": "address",
          "name": "rwaContract",
          "type": "address"
        },
        {
          "internalType": "uint256",
          "name": "tokenId",
          "type": "uint256"
        }
      ],
      "name": "deposit",
      "outputs": [],
      "stateMutability": "nonpayable",
      "type": "function"
    },
    {
      "inputs": [],
      "name": "getLatestPrice",
      "outputs": [
        {
          "internalType": "int256",
          "name": "",
          "type": "int256"
        }
      ],
      "stateMutability": "view",
      "type": "function"
    },
    {
      "inputs": [
        {
          "internalType": "address",
          "name": "user",
          "type": "address"
        }
      ],
      "name": "isVerified",
      "outputs": [
        {
          "internalType": "bool",
          "name": "",
          "type": "bool"
        }
      ],
      "stateMutability": "view",
      "type": "function"
    },
    {
      "inputs": [],
      "name": "kycSbt",
      "outputs": [
        {
          "internalType": "contract IKYCSBT",
          "name": "",
          "type": "address"
        }
      ],
      "stateMutability": "view",
      "type": "function"
    },
    {
      "inputs": [],
      "name": "owner",
      "outputs": [
        {
          "internalType": "address",
          "name": "",
          "type": "address"
        }
      ],
      "stateMutability": "view",
      "type": "function"
    },
    {
      "inputs": [
        {
          "internalType": "address",
          "name": "",
          "type": "address"
        }
      ],
      "name": "pendingYield",
      "outputs": [
        {
          "internalType": "uint256",
          "name": "",
          "type": "uint256"
        }
      ],
      "stateMutability": "view",
      "type": "function"
    },
    {
      "inputs": [],
      "name": "priceFeed",
      "outputs": [
        {
          "internalType": "contract AggregatorV3Interface",
          "name": "",
          "type": "address"
        }
      ],
      "stateMutability": "view",
      "type": "function"
    },
    {
      "inputs": [],
      "name": "registry",
      "outputs": [
        {
          "internalType": "contract IRWARegistry",
          "name": "",
          "type": "address"
        }
      ],
      "stateMutability": "view",
      "type": "function"
    },
    {
      "inputs": [],
      "name": "renounceOwnership",
      "outputs": [],
      "stateMutability": "nonpayable",
      "type": "function"
    },
    {
      "inputs": [
        {
          "internalType": "address",
          "name": "_priceFeed",
          "type": "address"
        }
      ],
      "name": "setPriceFeed",
      "outputs": [],
      "stateMutability": "nonpayable",
      "type": "function"
    },
    {
      "inputs": [
        {
          "internalType": "address",
          "name": "_registry",
          "type": "address"
        }
      ],
      "name": "setRegistry",
      "outputs": [],
      "stateMutability": "nonpayable",
      "type": "function"
    },
    {
      "inputs": [
        {
          "internalType": "uint256",
          "name": "",
          "type": "uint256"
        }
      ],
      "name": "stakes",
      "outputs": [
        {
          "internalType": "uint256",
          "name": "tokenId",
          "type": "uint256"
        },
        {
          "internalType": "address",
          "name": "owner",
          "type": "address"
        },
        {
          "internalType": "uint256",
          "name": "startTime",
          "type": "uint256"
        }
      ],
      "stateMutability": "view",
      "type": "function"
    },
    {
      "inputs": [],
      "name": "totalValueLocked",
      "outputs": [
        {
          "internalType": "uint256",
          "name": "",
          "type": "uint256"
        }
      ],
      "stateMutability": "view",
      "type": "function"
    },
    {
      "inputs": [
        {
          "internalType": "address",
          "name": "newOwner",
          "type": "address"
        }
      ],
      "name": "transferOwnership",
      "outputs": [],
      "stateMutability": "nonpayable",
      "type": "function"
    },
    {
      "inputs": [],
      "name": "verifier",
      "outputs": [
        {
          "internalType": "contract IVerifier",
          "name": "",
          "type": "address"
        }
      ],
      "stateMutability": "view",
      "type": "function"
    },
    {
      "inputs": [
        {
          "internalType": "uint256[2]",
          "name": "a",
          "type": "uint256[2]"
        },
        {
          "internalType": "uint256[2][2]",
          "name": "b",
          "type": "uint256[2][2]"
        },
        {
          "internalType": "uint256[2]",
          "name": "c",
          "type": "uint256[2]"
        },
        {
          "internalType": "uint256[1]",
          "name": "input",
          "type": "uint256[1]"
        }
      ],
      "name": "verifyUser",
      "outputs": [],
      "stateMutability": "nonpayable",
      "type": "function"
    },
    {
      "inputs": [
        {
          "internalType": "address",
          "name": "rwaContract",
          "type": "address"
        },
        {
          "internalType": "uint256",
          "name": "tokenId",
          "type": "uint256"
        }
      ],
      "name": "withdraw",
      "outputs": [],
      "stateMutability": "nonpayable",
      "type": "function"
    },
    {
      "inputs": [],
      "name": "yieldToken",
      "outputs": [
        {
          "internalType": "contract IERC20",
          "name": "",
          "type": "address"
        }
      ],
      "stateMutability": "view",
      "type": "function"
    }
  ],
  "bytecode": "0x60806040523480156200001157600080fd5b50604051620012cb380380620012cb83398101604081905262000034916200013b565b33806200005b57604051631e4fbdf760e01b81526000600482015260240160405180910390fd5b6200006681620000ce565b5060018055600280546001600160a01b03199081166001600160a01b03978816179091556003805482169587169590951790945560048054851693861693909317909255600580548416918516919091179055600680549092169216919091179055620001ab565b600080546001600160a01b038381166001600160a01b0319831681178455604051919092169283917f8be0079c531659141344cd1fd0a4f28419497f9722a3daafe3b4186f6b6457e09190a35050565b80516001600160a01b03811681146200013657600080fd5b919050565b600080600080600060a086880312156200015457600080fd5b6200015f866200011e565b94506200016f602087016200011e565b93506200017f604087016200011e565b92506200018f606087016200011e565b91506200019f608087016200011e565b90509295509295909350565b61111080620001bb6000396000f3fe608060405234801561001057600080fd5b506004361061012c5760003560e01c80638e15f473116100ad578063d5a44f8611610071578063d5a44f861461026a578063ec18154e146102c5578063f2fde38b146102ce578063f3fef3a3146102e1578063fa815645146102f457600080fd5b80638e15f473146101f95780639722c06214610201578063a91ee0dc14610214578063b9209e3314610227578063c7bf19801461024a57600080fd5b8063724e78da116100f4578063724e78da1461019c578063741bef1a146101af57806376d5de85146101c25780637b103999146101d55780638da5cb5b146101e857600080fd5b80632b7ac3f314610131578063406cf2291461016157806347e7ef241461016b5780634ca19fd61461017e578063715018a614610194575b600080fd5b600254610144906001600160a01b031681565b6040516001600160a01b0390911681526020015b60405180910390f35b610169610307565b005b610169610179366004610d26565b610478565b610186600581565b604051908152602001610158565b610169610664565b6101696101aa366004610d52565b610676565b600554610144906001600160a01b031681565b600354610144906001600160a01b031681565b600654610144906001600160a01b031681565b6000546001600160a01b0316610144565b6101866106c8565b600454610144906001600160a01b031681565b610169610222366004610d52565b61074d565b61023a610235366004610d52565b610777565b6040519015158152602001610158565b610186610258366004610d52565b60086020526000908152604090205481565b6102a2610278366004610d76565b60076020526000908152604090208054600182015460029092015490916001600160a01b03169083565b604080519384526001600160a01b03909216602084015290820152606001610158565b61018660095481565b6101696102dc366004610d52565b6107f2565b6101696102ef366004610d26565b610830565b610169610302366004610da6565b6109ff565b61030f610baa565b61031833610777565b61035d5760405162461bcd60e51b8152602060048201526011602482015270155cd95c881b9bdd081d995c9a599a5959607a1b60448201526064015b60405180910390fd5b33600090815260086020526040902054806103ae5760405162461bcd60e51b81526020600482015260116024820152704e6f207969656c6420746f20636c61696d60781b6044820152606401610354565b3360008181526008602052604080822091909155600354905163a9059cbb60e01b81526004810192909252602482018390526001600160a01b03169063a9059cbb906044016020604051808303816000875af1158015610412573d6000803e3d6000fd5b505050506040513d601f19601f820116820180604052508101906104369190610e21565b5060405181815233907fc04825ba3f383b602255d2a13065a68e325c65c9e0ed5d031ea2b06f641873af9060200160405180910390a25061047660018055565b565b610480610baa565b61048933610777565b6104c95760405162461bcd60e51b8152602060048201526011602482015270155cd95c881b9bdd081d995c9a599a5959607a1b6044820152606401610354565b6040516323b872dd60e01b8152336004820152306024820152604481018290526001600160a01b038316906323b872dd90606401600060405180830381600087803b15801561051757600080fd5b505af115801561052b573d6000803e3d6000fd5b505060408051606081018252848152336020808301918252428385019081526000888152600790925293902091518255516001820180546001600160a01b0319166001600160a01b03928316179055915160029091015560065416159150610621905057600654604051630cf35bdd60e41b8152600481018390526000916001600160a01b03169063cf35bdd090602401600060405180830381865afa1580156105d9573d6000803e3d6000fd5b505050506040513d6000823e601f3d908101601f191682016040526106019190810190610efb565b50505050915050806009600082825461061a9190610fac565b9091555050505b60405181815233907fddc69a07b5bfcee2b68a56a2e28e712c83e6b1372b06f80aaab04dbaca91020f906020015b60405180910390a261066060018055565b5050565b61066c610bd4565b6104766000610c01565b61067e610bd4565b600580546001600160a01b0319166001600160a01b0383169081179091556040517f3df77beb5db05fcdd70a30fc8adf3f83f9501b68579455adbd100b818094039490600090a250565b600080600560009054906101000a90046001600160a01b03166001600160a01b031663feaf968c6040518163ffffffff1660e01b815260040160a060405180830381865afa15801561071e573d6000803e3d6000fd5b505050506040513d601f19601f820116820180604052508101906107429190610fd9565b509195945050505050565b610755610bd4565b600680546001600160a01b0319166001600160a01b0392909216919091179055565b600480546040516370a0823160e01b81526001600160a01b0384811693820193909352600092839216906370a0823190602401602060405180830381865afa1580156107c7573d6000803e3d6000fd5b505050506040513d601f19601f820116820180604052508101906107eb9190611029565b1192915050565b6107fa610bd4565b6001600160a01b03811661082457604051631e4fbdf760e01b815260006004820152602401610354565b61082d81610c01565b50565b610838610baa565b6000818152600760205260409020600101546001600160a01b031633146108915760405162461bcd60e51b815260206004820152600d60248201526c2737ba103a34329037bbb732b960991b6044820152606401610354565b61089b3382610c51565b6006546001600160a01b03161561093e57600654604051630cf35bdd60e41b8152600481018390526000916001600160a01b03169063cf35bdd090602401600060405180830381865afa1580156108f6573d6000803e3d6000fd5b505050506040513d6000823e601f3d908101601f1916820160405261091e9190810190610efb565b5050505091505080600960008282546109379190611042565b9091555050505b6000818152600760205260408082208281556001810180546001600160a01b031916905560020191909155516323b872dd60e01b8152306004820152336024820152604481018290526001600160a01b038316906323b872dd90606401600060405180830381600087803b1580156109b557600080fd5b505af11580156109c9573d6000803e3d6000fd5b50506040518381523392507f94b055d454fefc95ba06924afbaac83912b1575d621a7d32a4675303246bb7d0915060200161064f565b6002546040516343753b4d60e01b81526001600160a01b03909116906343753b4d90610a35908790879087908790600401611055565b602060405180830381865afa158015610a52573d6000803e3d6000fd5b505050506040513d601f19601f82011682018060405250810190610a769190610e21565b610ab55760405162461bcd60e51b815260206004820152601060248201526f24b73b30b634b2102d2590383937b7b360811b6044820152606401610354565b610abe33610777565b15610afe5760405162461bcd60e51b815260206004820152601060248201526f105b1c9958591e481d995c9a599a595960821b6044820152606401610354565b600480546040516335313c2160e11b815233928101929092526001600160a01b031690636a627842906024016020604051808303816000875af1158015610b49573d6000803e3d6000fd5b505050506040513d601f19601f82011682018060405250810190610b6d9190611029565b506040518135815233907f22b3126528cda4618d13b6945f5e96fe53a5125f386aa591ee89134e2681c6219060200160405180910390a250505050565b600260015403610bcd57604051633ee5aeb560e01b815260040160405180910390fd5b6002600155565b6000546001600160a01b031633146104765760405163118cdaa760e01b8152336004820152602401610354565b600080546001600160a01b038381166001600160a01b0319831681178455604051919092169283917f8be0079c531659141344cd1fd0a4f28419497f9722a3daafe3b4186f6b6457e09190a35050565b6000818152600760205260409020600281015415610d0c576000816002015442610c7b9190611042565b90506000610c876106c8565b90506000808213610c9c576305f5e100610c9e565b815b905060006453d1ac100082610cbb86670de0b6b3a76400006110a1565b610cc591906110a1565b610ccf91906110b8565b6001600160a01b038816600090815260086020526040812080549293508392909190610cfc908490610fac565b9091555050426002860155505050505b505050565b6001600160a01b038116811461082d57600080fd5b60008060408385031215610d3957600080fd5b8235610d4481610d11565b946020939093013593505050565b600060208284031215610d6457600080fd5b8135610d6f81610d11565b9392505050565b600060208284031215610d8857600080fd5b5035919050565b8060408101831015610da057600080fd5b92915050565b600080600080610120808688031215610dbe57600080fd5b610dc88787610d8f565b945060c0860187811115610ddb57600080fd5b604087019450610deb8882610d8f565b935050868187011115610dfd57600080fd5b50929591945092610100019150565b80518015158114610e1c57600080fd5b919050565b600060208284031215610e3357600080fd5b610d6f82610e0c565b634e487b7160e01b600052604160045260246000fd5b600082601f830112610e6357600080fd5b815167ffffffffffffffff80821115610e7e57610e7e610e3c565b604051601f8301601f19908116603f01168101908282118183101715610ea657610ea6610e3c565b8160405283815260209250866020858801011115610ec357600080fd5b600091505b83821015610ee55785820183015181830184015290820190610ec8565b6000602085830101528094505050505092915050565b60008060008060008060c08789031215610f1457600080fd5b865167ffffffffffffffff80821115610f2c57600080fd5b610f388a838b01610e52565b9750602089015196506040890151915080821115610f5557600080fd5b50610f6289828a01610e52565b945050610f7160608801610e0c565b92506080870151915060a0870151610f8881610d11565b809150509295509295509295565b634e487b7160e01b600052601160045260246000fd5b80820180821115610da057610da0610f96565b805169ffffffffffffffffffff81168114610e1c57600080fd5b600080600080600060a08688031215610ff157600080fd5b610ffa86610fbf565b945060208601519350604086015192506060860151915061101d60808701610fbf565b90509295509295909350565b60006020828403121561103b57600080fd5b5051919050565b81810381811115610da057610da0610f96565b61012081016040808784378083018660005b600281101561108457838284379183019190830190600101611067565b505050808560c08501375060208361010084013795945050505050565b8082028115828204841417610da057610da0610f96565b6000826110d557634e487b7160e01b600052601260045260246000fd5b50049056fea2646970667358221220987da9a4b64bed87dfdc65d5ccb3c0b913cf50c4d621a0df69b9cd8e28533d8664736f6c63430008180033",
  "linkReferences": {},
  "deployedLinkReferences": {}
}