{
  "_format": "hh-sol-artifact-1",
  "contractName": "KYCSBT",
  "sourceName": "contracts/KYCSBT.sol",
  "abi": [
    {
      "inputs": [
        {
          "internalType": "address",
          "name": "initialOwner",
          "type": "address"
        }
      ],
      "stateMutability": "nonpayable",
      "type": "constructor"
    },
    {
      "inputs": [
        {
          "internalType": "address",
          "name": "sender",
          "type": "address"
        },
        {
          "internalType": "uint256",
          "name": "tokenId",
          "type": "uint256"
        },
        {
          "internalType": "address",
          "name": "owner",
          "type": "address"
        }
      ],
      "name": "ERC721IncorrectOwner",
      "type": "error"
    },
    {
      "inputs": [
        {
          "internalType": "address",
          "name": "operator",
          "type": "address"
        },
        {
          "internalType": "uint256",
          "name": "tokenId",
          "type": "uint256"
        }
      ],
      "name": "ERC721InsufficientApproval",
      "type": "error"
    },
    {
      "inputs": [
        {
          "internalType": "address",
          "name": "approver",
          "type": "address"
        }
      ],
      "name": "ERC721InvalidApprover",
      "type": "error"
    },
    {
      "inputs": [
        {
          "internalType": "address",
          "name": "operator",
          "type": "address"
        }
      ],
      "name": "ERC721InvalidOperator",
      "type": "error"
    },
    {
      "inputs": [
        {
          "internalType": "address",
          "name": "owner",
          "type": "address"
        }
      ],
      "name": "ERC721InvalidOwner",
      "type": "error"
    },
    {
      "inputs": [
        {
          "internalType": "address",
          "name": "receiver",
          "type": "address"
        }
      ],
      "name": "ERC721InvalidReceiver",
      "type": "error"
    },
    {
      "inputs": [
        {
          "internalType": "address",
          "name": "sender",
          "type": "address"
        }
      ],
      "name": "ERC721InvalidSender",
      "type": "error"
    },
    {
      "inputs": [
        {
          "internalType": "uint256",
          "name": "tokenId",
          "type": "uint256"
        }
      ],
      "name": "ERC721NonexistentToken",
      "type": "error"
    },
    {
      "inputs": [
        {
          "internalType": "address",
          "name": "owner",
          "type": "address"
        }
      ],
      "name": "OwnableInvalidOwner",
      "type": "error"
    },
    {
      "inputs": [
        {
          "internalType": "address",
          "name": "account",
          "type": "address"
        }
      ],
      "name": "OwnableUnauthorizedAccount",
      "type": "error"
    },
    {
      "anonymous": false,
      "inputs": [
        {
          "indexed": true,
          "internalType": "address",
          "name": "owner",
          "type": "address"
        },
        {
          "indexed": true,
          "internalType": "address",
          "name": "approved",
          "type": "address"
        },
        {
          "indexed": true,
          "internalType": "uint256",
          "name": "tokenId",
          "type": "uint256"
        }
      ],
      "name": "Approval",
      "type": "event"
    },
    {
      "anonymous": false,
      "inputs": [
        {
          "indexed": true,
          "internalType": "address",
          "name": "owner",
          "type": "address"
        },
        {
          "indexed": true,
          "internalType": "address",
          "name": "operator",
          "type": "address"
        },
        {
          "indexed": false,
          "internalType": "bool",
          "name": "approved",
          "type": "bool"
        }
      ],
      "name": "ApprovalForAll",
      "type": "event"
    },
    {
      "anonymous": false,
      "inputs": [
        {
          "indexed": true,
          "internalType": "address",
          "name": "user",
          "type": "address"
        },
        {
          "indexed": false,
          "internalType": "uint256",
          "name": "tokenId",
          "type": "uint256"
        }
      ],
      "name": "KYCVerified",
      "type": "event"
    },
    {
      "anonymous": false,
      "inputs": [
        {
          "indexed": true,
          "internalType": "address",
          "name": "previousOwner",
          "type": "address"
        },
        {
          "indexed": true,
          "internalType": "address",
          "name": "newOwner",
          "type": "address"
        }
      ],
      "name": "OwnershipTransferred",
      "type": "event"
    },
    {
      "anonymous": false,
      "inputs": [
        {
          "indexed": true,
          "internalType": "address",
          "name": "from",
          "type": "address"
        },
        {
          "indexed": true,
          "internalType": "address",
          "name": "to",
          "type": "address"
        },
        {
          "indexed": true,
          "internalType": "uint256",
          "name": "tokenId",
          "type": "uint256"
        }
      ],
      "name": "Transfer",
      "type": "event"
    },
    {
      "inputs": [
        {
          "internalType": "address",
          "name": "to",
          "type": "address"
        },
        {
          "internalType": "uint256",
          "name": "tokenId",
          "type": "uint256"
        }
      ],
      "name": "approve",
      "outputs": [],
      "stateMutability": "nonpayable",
      "type": "function"
    },
    {
      "inputs": [
        {
          "internalType": "address",
          "name": "owner",
          "type": "address"
        }
      ],
      "name": "balanceOf",
      "outputs": [
        {
          "internalType": "uint256",
          "name": "",
          "type": "uint256"
        }
      ],
      "stateMutability": "view",
      "type": "function"
    },
    {
      "inputs": [
        {
          "internalType": "uint256",
          "name": "tokenId",
          "type": "uint256"
        }
      ],
      "name": "getApproved",
      "outputs": [
        {
          "internalType": "address",
          "name": "",
          "type": "address"
        }
      ],
      "stateMutability": "view",
      "type": "function"
    },
    {
      "inputs": [
        {
          "internalType": "address",
          "name": "owner",
          "type": "address"
        },
        {
          "internalType": "address",
          "name": "operator",
          "type": "address"
        }
      ],
      "name": "isApprovedForAll",
      "outputs": [
        {
          "internalType": "bool",
          "name": "",
          "type": "bool"
        }
      ],
      "stateMutability": "view",
      "type": "function"
    },
    {
      "inputs": [
        {
          "internalType": "address",
          "name": "to",
          "type": "address"
        }
      ],
      "name": "mint",
      "outputs": [
        {
          "internalType": "uint256",
          "name": "",
          "type": "uint256"
        }
      ],
      "stateMutability": "nonpayable",
      "type": "function"
    },
    {
      "inputs": [],
      "name": "name",
      "outputs": [
        {
          "internalType": "string",
          "name": "",
          "type": "string"
        }
      ],
      "stateMutability": "view",
      "type": "function"
    },
    {
      "inputs": [],
      "name": "owner",
      "outputs": [
        {
          "internalType": "address",
          "name": "",
          "type": "address"
        }
      ],
      "stateMutability": "view",
      "type": "function"
    },
    {
      "inputs": [
        {
          "internalType": "uint256",
          "name": "tokenId",
          "type": "uint256"
        }
      ],
      "name": "ownerOf",
      "outputs": [
        {
          "internalType": "address",
          "name": "",
          "type": "address"
        }
      ],
      "stateMutability": "view",
      "type": "function"
    },
    {
      "inputs": [],
      "name": "renounceOwnership",
      "outputs": [],
      "stateMutability": "nonpayable",
      "type": "function"
    },
    {
      "inputs": [
        {
          "internalType": "address",
          "name": "from",
          "type": "address"
        },
        {
          "internalType": "address",
          "name": "to",
          "type": "address"
        },
        {
          "internalType": "uint256",
          "name": "tokenId",
          "type": "uint256"
        }
      ],
      "name": "safeTransferFrom",
      "outputs": [],
      "stateMutability": "nonpayable",
      "type": "function"
    },
    {
      "inputs": [
        {
          "internalType": "address",
          "name": "from",
          "type": "address"
        },
        {
          "internalType": "address",
          "name": "to",
          "type": "address"
        },
        {
          "internalType": "uint256",
          "name": "tokenId",
          "type": "uint256"
        },
        {
          "internalType": "bytes",
          "name": "data",
          "type": "bytes"
        }
      ],
      "name": "safeTransferFrom",
      "outputs": [],
      "stateMutability": "nonpayable",
      "type": "function"
    },
    {
      "inputs": [
        {
          "internalType": "address",
          "name": "operator",
          "type": "address"
        },
        {
          "internalType": "bool",
          "name": "approved",
          "type": "bool"
        }
      ],
      "name": "setApprovalForAll",
      "outputs": [],
      "stateMutability": "nonpayable",
      "type": "function"
    },
    {
      "inputs": [
        {
          "internalType": "bytes4",
          "name": "interfaceId",
          "type": "bytes4"
        }
      ],
      "name": "supportsInterface",
      "outputs": [
        {
          "internalType": "bool",
          "name": "",
          "type": "bool"
        }
      ],
      "stateMutability": "view",
      "type": "function"
    },
    {
      "inputs": [],
      "name": "symbol",
      "outputs": [
        {
          "internalType": "string",
          "name": "",
          "type": "string"
        }
      ],
      "stateMutability": "view",
      "type": "function"
    },
    {
      "inputs": [
        {
          "internalType": "uint256",
          "name": "tokenId",
          "type": "uint256"
        }
      ],
      "name": "tokenURI",
      "outputs": [
        {
          "internalType": "string",
          "name": "",
          "type": "string"
        }
      ],
      "stateMutability": "view",
      "type": "function"
    },
    {
      "inputs": [
        {
          "internalType": "address",
          "name": "from",
          "type": "address"
        },
        {
          "internalType": "address",
          "name": "to",
          "type": "address"
        },
        {
          "internalType": "uint256",
          "name": "tokenId",
          "type": "uint256"
        }
      ],
      "name": "transferFrom",
      "outputs": [],
      "stateMutability": "nonpayable",
      "type": "function"
    },
    {
      "inputs": [
        {
          "internalType": "address",
          "name": "newOwner",
          "type": "address"
        }
      ],
      "name": "transferOwnership",
      "outputs": [],
      "stateMutability": "nonpayable",
      "type": "function"
    }
  ],
  "bytecode": "0x60806040523480156200001157600080fd5b506040516200153438038062001534833981016040819052620000349162000141565b806040518060400160405280601381526020017f4b594320536f756c626f756e6420546f6b656e000000000000000000000000008152506040518060400160405280600681526020016512d650d4d09560d21b81525081600090816200009b91906200021a565b506001620000aa82826200021a565b5050506001600160a01b038116620000dc57604051631e4fbdf760e01b81526000600482015260240160405180910390fd5b620000e781620000ef565b5050620002e6565b600680546001600160a01b038381166001600160a01b0319831681179093556040519116919082907f8be0079c531659141344cd1fd0a4f28419497f9722a3daafe3b4186f6b6457e090600090a35050565b6000602082840312156200015457600080fd5b81516001600160a01b03811681146200016c57600080fd5b9392505050565b634e487b7160e01b600052604160045260246000fd5b600181811c908216806200019e57607f821691505b602082108103620001bf57634e487b7160e01b600052602260045260246000fd5b50919050565b601f82111562000215576000816000526020600020601f850160051c81016020861015620001f05750805b601f850160051c820191505b818110156200021157828155600101620001fc565b5050505b505050565b81516001600160401b0381111562000236576200023662000173565b6200024e8162000247845462000189565b84620001c5565b602080601f8311600181146200028657600084156200026d5750858301515b600019600386901b1c1916600185901b17855562000211565b600085815260208120601f198616915b82811015620002b75788860151825594840194600190910190840162000296565b5085821015620002d65787850151600019600388901b60f8161c191681555b5050505050600190811b01905550565b61123e80620002f66000396000f3fe608060405234801561001057600080fd5b506004361061010b5760003560e01c806370a08231116100a2578063a22cb46511610071578063a22cb4651461021b578063b88d4fde1461022e578063c87b56dd14610241578063e985e9c514610254578063f2fde38b1461026757600080fd5b806370a08231146101e7578063715018a6146101fa5780638da5cb5b1461020257806395d89b411461021357600080fd5b806323b872dd116100de57806323b872dd1461018d57806342842e0e146101a05780636352211e146101b35780636a627842146101c657600080fd5b806301ffc9a71461011057806306fdde0314610138578063081812fc1461014d578063095ea7b314610178575b600080fd5b61012361011e366004610e8c565b61027a565b60405190151581526020015b60405180910390f35b6101406102cc565b60405161012f9190610ef9565b61016061015b366004610f0c565b61035e565b6040516001600160a01b03909116815260200161012f565b61018b610186366004610f3c565b610387565b005b61018b61019b366004610f66565b610396565b61018b6101ae366004610f66565b610426565b6101606101c1366004610f0c565b610446565b6101d96101d4366004610fa2565b610451565b60405190815260200161012f565b6101d96101f5366004610fa2565b61051d565b61018b610565565b6006546001600160a01b0316610160565b610140610579565b61018b610229366004610fbd565b610588565b61018b61023c36600461100f565b610593565b61014061024f366004610f0c565b6105ab565b6101236102623660046110eb565b610620565b61018b610275366004610fa2565b61064e565b60006001600160e01b031982166380ac58cd60e01b14806102ab57506001600160e01b03198216635b5e139f60e01b145b806102c657506301ffc9a760e01b6001600160e01b03198316145b92915050565b6060600080546102db9061111e565b80601f01602080910402602001604051908101604052809291908181526020018280546103079061111e565b80156103545780601f1061032957610100808354040283529160200191610354565b820191906000526020600020905b81548152906001019060200180831161033757829003601f168201915b5050505050905090565b60006103698261068c565b506000828152600460205260409020546001600160a01b03166102c6565b6103928282336106c5565b5050565b6001600160a01b0382166103c557604051633250574960e11b8152600060048201526024015b60405180910390fd5b60006103d28383336106d2565b9050836001600160a01b0316816001600160a01b031614610420576040516364283d7b60e01b81526001600160a01b03808616600483015260248201849052821660448201526064016103bc565b50505050565b61044183838360405180602001604052806000815250610593565b505050565b60006102c68261068c565b600061045b610762565b6104648261051d565b156104b15760405162461bcd60e51b815260206004820152601c60248201527f5573657220616c7265616479206861732061204b594320746f6b656e0000000060448201526064016103bc565b60078054600091826104c283611158565b9190505590506104d2838261078f565b826001600160a01b03167fa2c3276770fbba49137d4f6145f5306d181eb450e016bee9df0e78c729554e578260405161050d91815260200190565b60405180910390a290505b919050565b60006001600160a01b038216610549576040516322718ad960e21b8152600060048201526024016103bc565b506001600160a01b031660009081526003602052604090205490565b61056d610762565b61057760006107a9565b565b6060600180546102db9061111e565b6103923383836107fb565b61059e848484610396565b610420338585858561089a565b60606105b68261068c565b5060006105ce60408051602081019091526000815290565b905060008151116105ee5760405180602001604052806000815250610619565b806105f8846109c5565b60405160200161060992919061117f565b6040516020818303038152906040525b9392505050565b6001600160a01b03918216600090815260056020908152604080832093909416825291909152205460ff1690565b610656610762565b6001600160a01b03811661068057604051631e4fbdf760e01b8152600060048201526024016103bc565b610689816107a9565b50565b6000818152600260205260408120546001600160a01b0316806102c657604051637e27328960e01b8152600481018490526024016103bc565b6104418383836001610a58565b6000828152600260205260408120546001600160a01b0316801580159061070157506001600160a01b03851615155b1561074e5760405162461bcd60e51b815260206004820152601960248201527f5342543a205472616e73666572206e6f7420616c6c6f7765640000000000000060448201526064016103bc565b610759858585610b5e565b95945050505050565b6006546001600160a01b031633146105775760405163118cdaa760e01b81523360048201526024016103bc565b610392828260405180602001604052806000815250610c57565b600680546001600160a01b038381166001600160a01b0319831681179093556040519116919082907f8be0079c531659141344cd1fd0a4f28419497f9722a3daafe3b4186f6b6457e090600090a35050565b6001600160a01b03821661082d57604051630b61174360e31b81526001600160a01b03831660048201526024016103bc565b6001600160a01b03838116600081815260056020908152604080832094871680845294825291829020805460ff191686151590811790915591519182527f17307eab39ab6107e8899845ad3d59bd9653f200f220920489ca2b5937696c31910160405180910390a3505050565b6001600160a01b0383163b156109be57604051630a85bd0160e11b81526001600160a01b0384169063150b7a02906108dc9088908890879087906004016111ae565b6020604051808303816000875af1925050508015610917575060408051601f3d908101601f19168201909252610914918101906111eb565b60015b610980573d808015610945576040519150601f19603f3d011682016040523d82523d6000602084013e61094a565b606091505b50805160000361097857604051633250574960e11b81526001600160a01b03851660048201526024016103bc565b805160208201fd5b6001600160e01b03198116630a85bd0160e11b146109bc57604051633250574960e11b81526001600160a01b03851660048201526024016103bc565b505b5050505050565b606060006109d283610c6f565b600101905060008167ffffffffffffffff8111156109f2576109f2610ff9565b6040519080825280601f01601f191660200182016040528015610a1c576020820181803683370190505b5090508181016020015b600019016f181899199a1a9b1b9c1cb0b131b232b360811b600a86061a8153600a8504945084610a2657509392505050565b8080610a6c57506001600160a01b03821615155b15610b2e576000610a7c8461068c565b90506001600160a01b03831615801590610aa85750826001600160a01b0316816001600160a01b031614155b8015610abb5750610ab98184610620565b155b15610ae45760405163a9fbf51f60e01b81526001600160a01b03841660048201526024016103bc565b8115610b2c5783856001600160a01b0316826001600160a01b03167f8c5be1e5ebec7d5bd14f71427d1e84f3dd0314c0f7b2291e5b200ac8c7c3b92560405160405180910390a45b505b5050600090815260046020526040902080546001600160a01b0319166001600160a01b0392909216919091179055565b6000828152600260205260408120546001600160a01b0390811690831615610b8b57610b8b818486610d47565b6001600160a01b03811615610bc957610ba8600085600080610a58565b6001600160a01b038116600090815260036020526040902080546000190190555b6001600160a01b03851615610bf8576001600160a01b0385166000908152600360205260409020805460010190555b60008481526002602052604080822080546001600160a01b0319166001600160a01b0389811691821790925591518793918516917fddf252ad1be2c89b69c2b068fc378daa952ba7f163c4a11628f55a4df523b3ef91a4949350505050565b610c618383610dab565b61044133600085858561089a565b60008072184f03e93ff9f4daa797ed6e38ed64bf6a1f0160401b8310610cae5772184f03e93ff9f4daa797ed6e38ed64bf6a1f0160401b830492506040015b6d04ee2d6d415b85acef81000000008310610cda576d04ee2d6d415b85acef8100000000830492506020015b662386f26fc100008310610cf857662386f26fc10000830492506010015b6305f5e1008310610d10576305f5e100830492506008015b6127108310610d2457612710830492506004015b60648310610d36576064830492506002015b600a83106102c65760010192915050565b610d52838383610e10565b610441576001600160a01b038316610d8057604051637e27328960e01b8152600481018290526024016103bc565b60405163177e802f60e01b81526001600160a01b0383166004820152602481018290526044016103bc565b6001600160a01b038216610dd557604051633250574960e11b8152600060048201526024016103bc565b6000610de3838360006106d2565b90506001600160a01b03811615610441576040516339e3563760e11b8152600060048201526024016103bc565b60006001600160a01b03831615801590610e6e5750826001600160a01b0316846001600160a01b03161480610e4a5750610e4a8484610620565b80610e6e57506000828152600460205260409020546001600160a01b038481169116145b949350505050565b6001600160e01b03198116811461068957600080fd5b600060208284031215610e9e57600080fd5b813561061981610e76565b60005b83811015610ec4578181015183820152602001610eac565b50506000910152565b60008151808452610ee5816020860160208601610ea9565b601f01601f19169290920160200192915050565b6020815260006106196020830184610ecd565b600060208284031215610f1e57600080fd5b5035919050565b80356001600160a01b038116811461051857600080fd5b60008060408385031215610f4f57600080fd5b610f5883610f25565b946020939093013593505050565b600080600060608486031215610f7b57600080fd5b610f8484610f25565b9250610f9260208501610f25565b9150604084013590509250925092565b600060208284031215610fb457600080fd5b61061982610f25565b60008060408385031215610fd057600080fd5b610fd983610f25565b915060208301358015158114610fee57600080fd5b809150509250929050565b634e487b7160e01b600052604160045260246000fd5b6000806000806080858703121561102557600080fd5b61102e85610f25565b935061103c60208601610f25565b925060408501359150606085013567ffffffffffffffff8082111561106057600080fd5b818701915087601f83011261107457600080fd5b81358181111561108657611086610ff9565b604051601f8201601f19908116603f011681019083821181831017156110ae576110ae610ff9565b816040528281528a60208487010111156110c757600080fd5b82602086016020830137600060208483010152809550505050505092959194509250565b600080604083850312156110fe57600080fd5b61110783610f25565b915061111560208401610f25565b90509250929050565b600181811c9082168061113257607f821691505b60208210810361115257634e487b7160e01b600052602260045260246000fd5b50919050565b60006001820161117857634e487b7160e01b600052601160045260246000fd5b5060010190565b60008351611191818460208801610ea9565b8351908301906111a5818360208801610ea9565b01949350505050565b6001600160a01b03858116825284166020820152604081018390526080606082018190526000906111e190830184610ecd565b9695505050505050565b6000602082840312156111fd57600080fd5b815161061981610e7656fea2646970667358221220d983ee173a1bd47687986d3a9b62011179535cc40543cc58fbbb7cf2f5b8f6ea64736f6c63430008180033",
  "linkReferences": {},
  "deployedLinkReferences": {}
}