{
  "_format": "hh-sol-artifact-1",
  "contractName": "MockPriceFeed",
  "sourceName": "contracts/MockPriceFeed.sol",
  "abi": [
    {
      "inputs": [
        {
          "internalType": "int256",
          "name": "initialPrice",
          "type": "int256"
        }
      ],
      "stateMutability": "nonpayable",
      "type": "constructor"
    },
    {
      "inputs": [],
      "name": "latestRoundData",
      "outputs": [
        {
          "internalType": "uint80",
          "name": "roundId",
          "type": "uint80"
        },
        {
          "internalType": "int256",
          "name": "answer",
          "type": "int256"
        },
        {
          "internalType": "uint256",
          "name": "startedAt",
          "type": "uint256"
        },
        {
          "internalType": "uint256",
          "name": "updatedAt",
          "type": "uint256"
        },
        {
          "internalType": "uint80",
          "name": "answeredInRound",
          "type": "uint80"
        }
      ],
      "stateMutability": "view",
      "type": "function"
    },
    {
      "inputs": [
        {
          "internalType": "int256",
          "name": "price",
          "type": "int256"
        }
      ],
      "name": "setPrice",
      "outputs": [],
      "stateMutability": "nonpayable",
      "type": "function"
    }
  ],
  "bytecode": "0x608060405234801561001057600080fd5b5060405161012838038061012883398101604081905261002f91610037565b600055610050565b60006020828403121561004957600080fd5b5051919050565b60ca8061005e6000396000f3fe6080604052348015600f57600080fd5b506004361060325760003560e01c8063f7a30806146037578063feaf968c146049575b600080fd5b60476042366004607c565b600055565b005b60005460408051600180825260208201939093524281830181905260608201526080810192909252519081900360a00190f35b600060208284031215608d57600080fd5b503591905056fea2646970667358221220041468f309abf8c0aee57f2fc5694bf41859c2261729aa316c181a6fbcd27f0f64736f6c63430008180033",
  "linkReferences": {},
  "deployedLinkReferences": {}
}