{
  "_format": "hh-sol-artifact-1",
  "contractName": "RWAAsset",
  "sourceName": "contracts/RWAAsset.sol",
  "abi": [
    {
      "inputs": [
        {
          "internalType": "address",
          "name": "initialOwner",
          "type": "address"
        },
        {
          "internalType": "address",
          "name": "_registry",
          "type": "address"
        }
      ],
      "stateMutability": "nonpayable",
      "type": "constructor"
    },
    {
      "inputs": [
        {
          "internalType": "address",
          "name": "sender",
          "type": "address"
        },
        {
          "internalType": "uint256",
          "name": "tokenId",
          "type": "uint256"
        },
        {
          "internalType": "address",
          "name": "owner",
          "type": "address"
        }
      ],
      "name": "ERC721IncorrectOwner",
      "type": "error"
    },
    {
      "inputs": [
        {
          "internalType": "address",
          "name": "operator",
          "type": "address"
        },
        {
          "internalType": "uint256",
          "name": "tokenId",
          "type": "uint256"
        }
      ],
      "name": "ERC721InsufficientApproval",
      "type": "error"
    },
    {
      "inputs": [
        {
          "internalType": "address",
          "name": "approver",
          "type": "address"
        }
      ],
      "name": "ERC721InvalidApprover",
      "type": "error"
    },
    {
      "inputs": [
        {
          "internalType": "address",
          "name": "operator",
          "type": "address"
        }
      ],
      "name": "ERC721InvalidOperator",
      "type": "error"
    },
    {
      "inputs": [
        {
          "internalType": "address",
          "name": "owner",
          "type": "address"
        }
      ],
      "name": "ERC721InvalidOwner",
      "type": "error"
    },
    {
      "inputs": [
        {
          "internalType": "address",
          "name": "receiver",
          "type": "address"
        }
      ],
      "name": "ERC721InvalidReceiver",
      "type": "error"
    },
    {
      "inputs": [
        {
          "internalType": "address",
          "name": "sender",
          "type": "address"
        }
      ],
      "name": "ERC721InvalidSender",
      "type": "error"
    },
    {
      "inputs": [
        {
          "internalType": "uint256",
          "name": "tokenId",
          "type": "uint256"
        }
      ],
      "name": "ERC721NonexistentToken",
      "type": "error"
    },
    {
      "inputs": [
        {
          "internalType": "address",
          "name": "owner",
          "type": "address"
        }
      ],
      "name": "OwnableInvalidOwner",
      "type": "error"
    },
    {
      "inputs": [
        {
          "internalType": "address",
          "name": "account",
          "type": "address"
        }
      ],
      "name": "OwnableUnauthorizedAccount",
      "type": "error"
    },
    {
      "anonymous": false,
      "inputs": [
        {
          "indexed": true,
          "internalType": "address",
          "name": "owner",
          "type": "address"
        },
        {
          "indexed": true,
          "internalType": "address",
          "name": "approved",
          "type": "address"
        },
        {
          "indexed": true,
          "internalType": "uint256",
          "name": "tokenId",
          "type": "uint256"
        }
      ],
      "name": "Approval",
      "type": "event"
    },
    {
      "anonymous": false,
      "inputs": [
        {
          "indexed": true,
          "internalType": "address",
          "name": "owner",
          "type": "address"
        },
        {
          "indexed": true,
          "internalType": "address",
          "name": "operator",
          "type": "address"
        },
        {
          "indexed": false,
          "internalType": "bool",
          "name": "approved",
          "type": "bool"
        }
      ],
      "name": "ApprovalForAll",
      "type": "event"
    },
    {
      "anonymous": false,
      "inputs": [
        {
          "indexed": false,
          "internalType": "uint256",
          "name": "_fromTokenId",
          "type": "uint256"
        },
        {
          "indexed": false,
          "internalType": "uint256",
          "name": "_toTokenId",
          "type": "uint256"
        }
      ],
      "name": "BatchMetadataUpdate",
      "type": "event"
    },
    {
      "anonymous": false,
      "inputs": [
        {
          "indexed": false,
          "internalType": "uint256",
          "name": "_tokenId",
          "type": "uint256"
        }
      ],
      "name": "MetadataUpdate",
      "type": "event"
    },
    {
      "anonymous": false,
      "inputs": [
        {
          "indexed": true,
          "internalType": "address",
          "name": "previousOwner",
          "type": "address"
        },
        {
          "indexed": true,
          "internalType": "address",
          "name": "newOwner",
          "type": "address"
        }
      ],
      "name": "OwnershipTransferred",
      "type": "event"
    },
    {
      "anonymous": false,
      "inputs": [
        {
          "indexed": true,
          "internalType": "address",
          "name": "from",
          "type": "address"
        },
        {
          "indexed": true,
          "internalType": "address",
          "name": "to",
          "type": "address"
        },
        {
          "indexed": true,
          "internalType": "uint256",
          "name": "tokenId",
          "type": "uint256"
        }
      ],
      "name": "Transfer",
      "type": "event"
    },
    {
      "inputs": [
        {
          "internalType": "address",
          "name": "to",
          "type": "address"
        },
        {
          "internalType": "uint256",
          "name": "tokenId",
          "type": "uint256"
        }
      ],
      "name": "approve",
      "outputs": [],
      "stateMutability": "nonpayable",
      "type": "function"
    },
    {
      "inputs": [
        {
          "internalType": "address",
          "name": "owner",
          "type": "address"
        }
      ],
      "name": "balanceOf",
      "outputs": [
        {
          "internalType": "uint256",
          "name": "",
          "type": "uint256"
        }
      ],
      "stateMutability": "view",
      "type": "function"
    },
    {
      "inputs": [
        {
          "internalType": "uint256",
          "name": "tokenId",
          "type": "uint256"
        }
      ],
      "name": "getApproved",
      "outputs": [
        {
          "internalType": "address",
          "name": "",
          "type": "address"
        }
      ],
      "stateMutability": "view",
      "type": "function"
    },
    {
      "inputs": [
        {
          "internalType": "address",
          "name": "owner",
          "type": "address"
        },
        {
          "internalType": "address",
          "name": "operator",
          "type": "address"
        }
      ],
      "name": "isApprovedForAll",
      "outputs": [
        {
          "internalType": "bool",
          "name": "",
          "type": "bool"
        }
      ],
      "stateMutability": "view",
      "type": "function"
    },
    {
      "inputs": [
        {
          "internalType": "uint256",
          "name": "",
          "type": "uint256"
        }
      ],
      "name": "isRegulated",
      "outputs": [
        {
          "internalType": "bool",
          "name": "",
          "type": "bool"
        }
      ],
      "stateMutability": "view",
      "type": "function"
    },
    {
      "inputs": [
        {
          "internalType": "address",
          "name": "to",
          "type": "address"
        },
        {
          "internalType": "string",
          "name": "uri",
          "type": "string"
        },
        {
          "internalType": "bool",
          "name": "regulated",
          "type": "bool"
        },
        {
          "internalType": "string",
          "name": "assetType",
          "type": "string"
        },
        {
          "internalType": "uint256",
          "name": "value",
          "type": "uint256"
        },
        {
          "internalType": "string",
          "name": "metadataJson",
          "type": "string"
        }
      ],
      "name": "mint",
      "outputs": [
        {
          "internalType": "uint256",
          "name": "",
          "type": "uint256"
        }
      ],
      "stateMutability": "nonpayable",
      "type": "function"
    },
    {
      "inputs": [],
      "name": "name",
      "outputs": [
        {
          "internalType": "string",
          "name": "",
          "type": "string"
        }
      ],
      "stateMutability": "view",
      "type": "function"
    },
    {
      "inputs": [],
      "name": "owner",
      "outputs": [
        {
          "internalType": "address",
          "name": "",
          "type": "address"
        }
      ],
      "stateMutability": "view",
      "type": "function"
    },
    {
      "inputs": [
        {
          "internalType": "uint256",
          "name": "tokenId",
          "type": "uint256"
        }
      ],
      "name": "ownerOf",
      "outputs": [
        {
          "internalType": "address",
          "name": "",
          "type": "address"
        }
      ],
      "stateMutability": "view",
      "type": "function"
    },
    {
      "inputs": [],
      "name": "registry",
      "outputs": [
        {
          "internalType": "contract IRWARegistry",
          "name": "",
          "type": "address"
        }
      ],
      "stateMutability": "view",
      "type": "function"
    },
    {
      "inputs": [],
      "name": "renounceOwnership",
      "outputs": [],
      "stateMutability": "nonpayable",
      "type": "function"
    },
    {
      "inputs": [
        {
          "internalType": "address",
          "name": "from",
          "type": "address"
        },
        {
          "internalType": "address",
          "name": "to",
          "type": "address"
        },
        {
          "internalType": "uint256",
          "name": "tokenId",
          "type": "uint256"
        }
      ],
      "name": "safeTransferFrom",
      "outputs": [],
      "stateMutability": "nonpayable",
      "type": "function"
    },
    {
      "inputs": [
        {
          "internalType": "address",
          "name": "from",
          "type": "address"
        },
        {
          "internalType": "address",
          "name": "to",
          "type": "address"
        },
        {
          "internalType": "uint256",
          "name": "tokenId",
          "type": "uint256"
        },
        {
          "internalType": "bytes",
          "name": "data",
          "type": "bytes"
        }
      ],
      "name": "safeTransferFrom",
      "outputs": [],
      "stateMutability": "nonpayable",
      "type": "function"
    },
    {
      "inputs": [
        {
          "internalType": "address",
          "name": "operator",
          "type": "address"
        },
        {
          "internalType": "bool",
          "name": "approved",
          "type": "bool"
        }
      ],
      "name": "setApprovalForAll",
      "outputs": [],
      "stateMutability": "nonpayable",
      "type": "function"
    },
    {
      "inputs": [
        {
          "internalType": "address",
          "name": "_registry",
          "type": "address"
        }
      ],
      "name": "setRegistry",
      "outputs": [],
      "stateMutability": "nonpayable",
      "type": "function"
    },
    {
      "inputs": [
        {
          "internalType": "bytes4",
          "name": "interfaceId",
          "type": "bytes4"
        }
      ],
      "name": "supportsInterface",
      "outputs": [
        {
          "internalType": "bool",
          "name": "",
          "type": "bool"
        }
      ],
      "stateMutability": "view",
      "type": "function"
    },
    {
      "inputs": [],
      "name": "symbol",
      "outputs": [
        {
          "internalType": "string",
          "name": "",
          "type": "string"
        }
      ],
      "stateMutability": "view",
      "type": "function"
    },
    {
      "inputs": [
        {
          "internalType": "uint256",
          "name": "tokenId",
          "type": "uint256"
        }
      ],
      "name": "tokenURI",
      "outputs": [
        {
          "internalType": "string",
          "name": "",
          "type": "string"
        }
      ],
      "stateMutability": "view",
      "type": "function"
    },
    {
      "inputs": [
        {
          "internalType": "address",
          "name": "from",
          "type": "address"
        },
        {
          "internalType": "address",
          "name": "to",
          "type": "address"
        },
        {
          "internalType": "uint256",
          "name": "tokenId",
          "type": "uint256"
        }
      ],
      "name": "transferFrom",
      "outputs": [],
      "stateMutability": "nonpayable",
      "type": "function"
    },
    {
      "inputs": [
        {
          "internalType": "address",
          "name": "newOwner",
          "type": "address"
        }
      ],
      "name": "transferOwnership",
      "outputs": [],
      "stateMutability": "nonpayable",
      "type": "function"
    }
  ],
  "bytecode": "0x60806040523480156200001157600080fd5b506040516200192838038062001928833981016040819052620000349162000168565b81604051806040016040528060098152602001681495d048105cdcd95d60ba1b815250604051806040016040528060048152602001635257414160e01b815250816000908162000085919062000247565b50600162000094828262000247565b5050506001600160a01b038116620000c657604051631e4fbdf760e01b81526000600482015260240160405180910390fd5b620000d181620000f9565b50600a80546001600160a01b0319166001600160a01b03929092169190911790555062000313565b600780546001600160a01b038381166001600160a01b0319831681179093556040519116919082907f8be0079c531659141344cd1fd0a4f28419497f9722a3daafe3b4186f6b6457e090600090a35050565b80516001600160a01b03811681146200016357600080fd5b919050565b600080604083850312156200017c57600080fd5b62000187836200014b565b915062000197602084016200014b565b90509250929050565b634e487b7160e01b600052604160045260246000fd5b600181811c90821680620001cb57607f821691505b602082108103620001ec57634e487b7160e01b600052602260045260246000fd5b50919050565b601f82111562000242576000816000526020600020601f850160051c810160208610156200021d5750805b601f850160051c820191505b818110156200023e5782815560010162000229565b5050505b505050565b81516001600160401b03811115620002635762000263620001a0565b6200027b81620002748454620001b6565b84620001f2565b602080601f831160018114620002b357600084156200029a5750858301515b600019600386901b1c1916600185901b1785556200023e565b600085815260208120601f198616915b82811015620002e457888601518255948401946001909101908401620002c3565b5085821015620003035787850151600019600388901b60f8161c191681555b5050505050600190811b01905550565b61160580620003236000396000f3fe608060405234801561001057600080fd5b506004361061012c5760003560e01c8063715018a6116100ad578063a91ee0dc11610071578063a91ee0dc14610285578063b88d4fde14610298578063c87b56dd146102ab578063e985e9c5146102be578063f2fde38b146102d157600080fd5b8063715018a61461023e5780637b103999146102465780638da5cb5b1461025957806395d89b411461026a578063a22cb4651461027257600080fd5b806342842e0e116100f457806342842e0e146101c15780635472bb1b146101d457806361f61c46146101f75780636352211e1461021857806370a082311461022b57600080fd5b806301ffc9a71461013157806306fdde0314610159578063081812fc1461016e578063095ea7b31461019957806323b872dd146101ae575b600080fd5b61014461013f36600461101a565b6102e4565b60405190151581526020015b60405180910390f35b61016161030f565b6040516101509190611087565b61018161017c36600461109a565b6103a1565b6040516001600160a01b039091168152602001610150565b6101ac6101a73660046110cf565b6103ca565b005b6101ac6101bc3660046110f9565b6103d9565b6101ac6101cf3660046110f9565b610469565b6101446101e236600461109a565b60096020526000908152604090205460ff1681565b61020a6102053660046111f1565b610489565b604051908152602001610150565b61018161022636600461109a565b610558565b61020a6102393660046112a3565b610563565b6101ac6105ab565b600a54610181906001600160a01b031681565b6007546001600160a01b0316610181565b6101616105bf565b6101ac6102803660046112be565b6105ce565b6101ac6102933660046112a3565b6105d9565b6101ac6102a63660046112f1565b610603565b6101616102b936600461109a565b61061b565b6101446102cc36600461136d565b61072c565b6101ac6102df3660046112a3565b61075a565b60006001600160e01b03198216632483248360e11b1480610309575061030982610798565b92915050565b60606000805461031e90611397565b80601f016020809104026020016040519081016040528092919081815260200182805461034a90611397565b80156103975780601f1061036c57610100808354040283529160200191610397565b820191906000526020600020905b81548152906001019060200180831161037a57829003601f168201915b5050505050905090565b60006103ac826107e8565b506000828152600460205260409020546001600160a01b0316610309565b6103d5828233610821565b5050565b6001600160a01b03821661040857604051633250574960e11b8152600060048201526024015b60405180910390fd5b600061041583833361082e565b9050836001600160a01b0316816001600160a01b031614610463576040516364283d7b60e01b81526001600160a01b03808616600483015260248201849052821660448201526064016103ff565b50505050565b61048483838360405180602001604052806000815250610603565b505050565b600880546000918291908261049d836113d1565b9190505590506104ad8882610927565b6104b78188610941565b6000818152600960205260409020805460ff1916871515179055600a546001600160a01b03161561054d57600a54604051630d27a82560e41b81526001600160a01b039091169063d27a82509061051a9084908990899089908d906004016113f8565b600060405180830381600087803b15801561053457600080fd5b505af1158015610548573d6000803e3d6000fd5b505050505b979650505050505050565b6000610309826107e8565b60006001600160a01b03821661058f576040516322718ad960e21b8152600060048201526024016103ff565b506001600160a01b031660009081526003602052604090205490565b6105b3610991565b6105bd60006109be565b565b60606001805461031e90611397565b6103d5338383610a10565b6105e1610991565b600a80546001600160a01b0319166001600160a01b0392909216919091179055565b61060e8484846103d9565b6104633385858585610aaf565b6060610626826107e8565b506000828152600660205260408120805461064090611397565b80601f016020809104026020016040519081016040528092919081815260200182805461066c90611397565b80156106b95780601f1061068e576101008083540402835291602001916106b9565b820191906000526020600020905b81548152906001019060200180831161069c57829003601f168201915b5050505050905060006106d760408051602081019091526000815290565b905080516000036106e9575092915050565b81511561071b57808260405160200161070392919061143e565b60405160208183030381529060405292505050919050565b61072484610bda565b949350505050565b6001600160a01b03918216600090815260056020908152604080832093909416825291909152205460ff1690565b610762610991565b6001600160a01b03811661078c57604051631e4fbdf760e01b8152600060048201526024016103ff565b610795816109be565b50565b60006001600160e01b031982166380ac58cd60e01b14806107c957506001600160e01b03198216635b5e139f60e01b145b8061030957506301ffc9a760e01b6001600160e01b0319831614610309565b6000818152600260205260408120546001600160a01b03168061030957604051637e27328960e01b8152600481018490526024016103ff565b6104848383836001610c4f565b6000828152600260205260408120546001600160a01b039081169083161561085b5761085b818486610d55565b6001600160a01b0381161561089957610878600085600080610c4f565b6001600160a01b038116600090815260036020526040902080546000190190555b6001600160a01b038516156108c8576001600160a01b0385166000908152600360205260409020805460010190555b60008481526002602052604080822080546001600160a01b0319166001600160a01b0389811691821790925591518793918516917fddf252ad1be2c89b69c2b068fc378daa952ba7f163c4a11628f55a4df523b3ef91a4949350505050565b6103d5828260405180602001604052806000815250610db9565b600082815260066020526040902061095982826114b5565b506040518281527ff8e1a15aba9398e019f0b49df1a4fde98ee17ae345cb5f6b5e2c27f5033e8ce79060200160405180910390a15050565b6007546001600160a01b031633146105bd5760405163118cdaa760e01b81523360048201526024016103ff565b600780546001600160a01b038381166001600160a01b0319831681179093556040519116919082907f8be0079c531659141344cd1fd0a4f28419497f9722a3daafe3b4186f6b6457e090600090a35050565b6001600160a01b038216610a4257604051630b61174360e31b81526001600160a01b03831660048201526024016103ff565b6001600160a01b03838116600081815260056020908152604080832094871680845294825291829020805460ff191686151590811790915591519182527f17307eab39ab6107e8899845ad3d59bd9653f200f220920489ca2b5937696c31910160405180910390a3505050565b6001600160a01b0383163b15610bd357604051630a85bd0160e11b81526001600160a01b0384169063150b7a0290610af1908890889087908790600401611575565b6020604051808303816000875af1925050508015610b2c575060408051601f3d908101601f19168201909252610b29918101906115b2565b60015b610b95573d808015610b5a576040519150601f19603f3d011682016040523d82523d6000602084013e610b5f565b606091505b508051600003610b8d57604051633250574960e11b81526001600160a01b03851660048201526024016103ff565b805160208201fd5b6001600160e01b03198116630a85bd0160e11b14610bd157604051633250574960e11b81526001600160a01b03851660048201526024016103ff565b505b5050505050565b6060610be5826107e8565b506000610bfd60408051602081019091526000815290565b90506000815111610c1d5760405180602001604052806000815250610c48565b80610c2784610dd1565b604051602001610c3892919061143e565b6040516020818303038152906040525b9392505050565b8080610c6357506001600160a01b03821615155b15610d25576000610c73846107e8565b90506001600160a01b03831615801590610c9f5750826001600160a01b0316816001600160a01b031614155b8015610cb25750610cb0818461072c565b155b15610cdb5760405163a9fbf51f60e01b81526001600160a01b03841660048201526024016103ff565b8115610d235783856001600160a01b0316826001600160a01b03167f8c5be1e5ebec7d5bd14f71427d1e84f3dd0314c0f7b2291e5b200ac8c7c3b92560405160405180910390a45b505b5050600090815260046020526040902080546001600160a01b0319166001600160a01b0392909216919091179055565b610d60838383610e64565b610484576001600160a01b038316610d8e57604051637e27328960e01b8152600481018290526024016103ff565b60405163177e802f60e01b81526001600160a01b0383166004820152602481018290526044016103ff565b610dc38383610ec7565b610484336000858585610aaf565b60606000610dde83610f2c565b600101905060008167ffffffffffffffff811115610dfe57610dfe611135565b6040519080825280601f01601f191660200182016040528015610e28576020820181803683370190505b5090508181016020015b600019016f181899199a1a9b1b9c1cb0b131b232b360811b600a86061a8153600a8504945084610e3257509392505050565b60006001600160a01b038316158015906107245750826001600160a01b0316846001600160a01b03161480610e9e5750610e9e848461072c565b806107245750506000908152600460205260409020546001600160a01b03908116911614919050565b6001600160a01b038216610ef157604051633250574960e11b8152600060048201526024016103ff565b6000610eff8383600061082e565b90506001600160a01b03811615610484576040516339e3563760e11b8152600060048201526024016103ff565b60008072184f03e93ff9f4daa797ed6e38ed64bf6a1f0160401b8310610f6b5772184f03e93ff9f4daa797ed6e38ed64bf6a1f0160401b830492506040015b6d04ee2d6d415b85acef81000000008310610f97576d04ee2d6d415b85acef8100000000830492506020015b662386f26fc100008310610fb557662386f26fc10000830492506010015b6305f5e1008310610fcd576305f5e100830492506008015b6127108310610fe157612710830492506004015b60648310610ff3576064830492506002015b600a83106103095760010192915050565b6001600160e01b03198116811461079557600080fd5b60006020828403121561102c57600080fd5b8135610c4881611004565b60005b8381101561105257818101518382015260200161103a565b50506000910152565b60008151808452611073816020860160208601611037565b601f01601f19169290920160200192915050565b602081526000610c48602083018461105b565b6000602082840312156110ac57600080fd5b5035919050565b80356001600160a01b03811681146110ca57600080fd5b919050565b600080604083850312156110e257600080fd5b6110eb836110b3565b946020939093013593505050565b60008060006060848603121561110e57600080fd5b611117846110b3565b9250611125602085016110b3565b9150604084013590509250925092565b634e487b7160e01b600052604160045260246000fd5b600067ffffffffffffffff8084111561116657611166611135565b604051601f8501601f19908116603f0116810190828211818310171561118e5761118e611135565b816040528093508581528686860111156111a757600080fd5b858560208301376000602087830101525050509392505050565b600082601f8301126111d257600080fd5b610c488383356020850161114b565b803580151581146110ca57600080fd5b60008060008060008060c0878903121561120a57600080fd5b611213876110b3565b9550602087013567ffffffffffffffff8082111561123057600080fd5b61123c8a838b016111c1565b965061124a60408a016111e1565b9550606089013591508082111561126057600080fd5b61126c8a838b016111c1565b94506080890135935060a089013591508082111561128957600080fd5b5061129689828a016111c1565b9150509295509295509295565b6000602082840312156112b557600080fd5b610c48826110b3565b600080604083850312156112d157600080fd5b6112da836110b3565b91506112e8602084016111e1565b90509250929050565b6000806000806080858703121561130757600080fd5b611310856110b3565b935061131e602086016110b3565b925060408501359150606085013567ffffffffffffffff81111561134157600080fd5b8501601f8101871361135257600080fd5b6113618782356020840161114b565b91505092959194509250565b6000806040838503121561138057600080fd5b611389836110b3565b91506112e8602084016110b3565b600181811c908216806113ab57607f821691505b6020821081036113cb57634e487b7160e01b600052602260045260246000fd5b50919050565b6000600182016113f157634e487b7160e01b600052601160045260246000fd5b5060010190565b85815260a06020820152600061141160a083018761105b565b8560408401528281036060840152611429818661105b565b91505082151560808301529695505050505050565b60008351611450818460208801611037565b835190830190611464818360208801611037565b01949350505050565b601f821115610484576000816000526020600020601f850160051c810160208610156114965750805b601f850160051c820191505b81811015610bd1578281556001016114a2565b815167ffffffffffffffff8111156114cf576114cf611135565b6114e3816114dd8454611397565b8461146d565b602080601f83116001811461151857600084156115005750858301515b600019600386901b1c1916600185901b178555610bd1565b600085815260208120601f198616915b8281101561154757888601518255948401946001909101908401611528565b50858210156115655787850151600019600388901b60f8161c191681555b5050505050600190811b01905550565b6001600160a01b03858116825284166020820152604081018390526080606082018190526000906115a89083018461105b565b9695505050505050565b6000602082840312156115c457600080fd5b8151610c488161100456fea264697066735822122039bb6128262d5056cee358691483d60dd73d7920e2c17008be0002b60e0c91e064736f6c63430008180033",
  "linkReferences": {},
  "deployedLinkReferences": {}
}