{
  "_format": "hh-sol-artifact-1",
  "contractName": "RWAProofOfReserve",
  "sourceName": "contracts/RWAProofOfReserve.sol",
  "abi": [
    {
      "inputs": [
        {
          "internalType": "address",
          "name": "_porFeed",
          "type": "address"
        }
      ],
      "stateMutability": "nonpayable",
      "type": "constructor"
    },
    {
      "inputs": [
        {
          "internalType": "address",
          "name": "owner",
          "type": "address"
        }
      ],
      "name": "OwnableInvalidOwner",
      "type": "error"
    },
    {
      "inputs": [
        {
          "internalType": "address",
          "name": "account",
          "type": "address"
        }
      ],
      "name": "OwnableUnauthorizedAccount",
      "type": "error"
    },
    {
      "anonymous": false,
      "inputs": [
        {
          "indexed": true,
          "internalType": "address",
          "name": "previousOwner",
          "type": "address"
        },
        {
          "indexed": true,
          "internalType": "address",
          "name": "newOwner",
          "type": "address"
        }
      ],
      "name": "OwnershipTransferred",
      "type": "event"
    },
    {
      "anonymous": false,
      "inputs": [
        {
          "indexed": false,
          "internalType": "int256",
          "name": "amount",
          "type": "int256"
        },
        {
          "indexed": false,
          "internalType": "uint256",
          "name": "timestamp",
          "type": "uint256"
        }
      ],
      "name": "ReserveUpdated",
      "type": "event"
    },
    {
      "inputs": [],
      "name": "getLatestReserve",
      "outputs": [
        {
          "internalType": "int256",
          "name": "",
          "type": "int256"
        }
      ],
      "stateMutability": "view",
      "type": "function"
    },
    {
      "inputs": [
        {
          "internalType": "uint256",
          "name": "totalSupply",
          "type": "uint256"
        }
      ],
      "name": "isFullyBacked",
      "outputs": [
        {
          "internalType": "bool",
          "name": "",
          "type": "bool"
        }
      ],
      "stateMutability": "view",
      "type": "function"
    },
    {
      "inputs": [],
      "name": "lastUpdate",
      "outputs": [
        {
          "internalType": "uint256",
          "name": "",
          "type": "uint256"
        }
      ],
      "stateMutability": "view",
      "type": "function"
    },
    {
      "inputs": [],
      "name": "owner",
      "outputs": [
        {
          "internalType": "address",
          "name": "",
          "type": "address"
        }
      ],
      "stateMutability": "view",
      "type": "function"
    },
    {
      "inputs": [],
      "name": "porFeed",
      "outputs": [
        {
          "internalType": "contract AggregatorV3Interface",
          "name": "",
          "type": "address"
        }
      ],
      "stateMutability": "view",
      "type": "function"
    },
    {
      "inputs": [],
      "name": "renounceOwnership",
      "outputs": [],
      "stateMutability": "nonpayable",
      "type": "function"
    },
    {
      "inputs": [
        {
          "internalType": "address",
          "name": "_porFeed",
          "type": "address"
        }
      ],
      "name": "setPoRFeed",
      "outputs": [],
      "stateMutability": "nonpayable",
      "type": "function"
    },
    {
      "inputs": [
        {
          "internalType": "address",
          "name": "newOwner",
          "type": "address"
        }
      ],
      "name": "transferOwnership",
      "outputs": [],
      "stateMutability": "nonpayable",
      "type": "function"
    }
  ],
  "bytecode": "0x608060405234801561001057600080fd5b506040516104e93803806104e983398101604081905261002f916100d4565b338061005557604051631e4fbdf760e01b81526000600482015260240160405180910390fd5b61005e81610084565b50600180546001600160a01b0319166001600160a01b0392909216919091179055610104565b600080546001600160a01b038381166001600160a01b0319831681178455604051919092169283917f8be0079c531659141344cd1fd0a4f28419497f9722a3daafe3b4186f6b6457e09190a35050565b6000602082840312156100e657600080fd5b81516001600160a01b03811681146100fd57600080fd5b9392505050565b6103d6806101136000396000f3fe608060405234801561001057600080fd5b50600436106100885760003560e01c8063a2a7b4e41161005b578063a2a7b4e4146100fa578063a86c5e671461010d578063c046371114610120578063f2fde38b1461012957600080fd5b8063156ca2af1461008d57806330cc4d75146100b5578063715018a6146100cb5780638da5cb5b146100d5575b600080fd5b6100a061009b3660046102e8565b61013c565b60405190151581526020015b60405180910390f35b6100bd610165565b6040519081526020016100ac565b6100d36101ea565b005b6000546001600160a01b03165b6040516001600160a01b0390911681526020016100ac565b6100d3610108366004610301565b6101fe565b6001546100e2906001600160a01b031681565b6100bd60025481565b6100d3610137366004610301565b610228565b600080610147610165565b9050600081121561015b5750600092915050565b9190911015919050565b600080600160009054906101000a90046001600160a01b03166001600160a01b031663feaf968c6040518163ffffffff1660e01b815260040160a060405180830381865afa1580156101bb573d6000803e3d6000fd5b505050506040513d601f19601f820116820180604052508101906101df9190610350565b509195945050505050565b6101f261026b565b6101fc6000610298565b565b61020661026b565b600180546001600160a01b0319166001600160a01b0392909216919091179055565b61023061026b565b6001600160a01b03811661025f57604051631e4fbdf760e01b8152600060048201526024015b60405180910390fd5b61026881610298565b50565b6000546001600160a01b031633146101fc5760405163118cdaa760e01b8152336004820152602401610256565b600080546001600160a01b038381166001600160a01b0319831681178455604051919092169283917f8be0079c531659141344cd1fd0a4f28419497f9722a3daafe3b4186f6b6457e09190a35050565b6000602082840312156102fa57600080fd5b5035919050565b60006020828403121561031357600080fd5b81356001600160a01b038116811461032a57600080fd5b9392505050565b805169ffffffffffffffffffff8116811461034b57600080fd5b919050565b600080600080600060a0868803121561036857600080fd5b61037186610331565b945060208601519350604086015192506060860151915061039460808701610331565b9050929550929590935056fea26469706673582212204a07ade34b5462d40d034ee798bb6e42f794f288a721310819f332cc8035f62e64736f6c63430008180033",
  "linkReferences": {},
  "deployedLinkReferences": {}
}