{
  "_format": "hh-sol-artifact-1",
  "contractName": "RWARegistry",
  "sourceName": "contracts/RWARegistry.sol",
  "abi": [
    {
      "inputs": [],
      "stateMutability": "nonpayable",
      "type": "constructor"
    },
    {
      "inputs": [
        {
          "internalType": "address",
          "name": "owner",
          "type": "address"
        }
      ],
      "name": "OwnableInvalidOwner",
      "type": "error"
    },
    {
      "inputs": [
        {
          "internalType": "address",
          "name": "account",
          "type": "address"
        }
      ],
      "name": "OwnableUnauthorizedAccount",
      "type": "error"
    },
    {
      "anonymous": false,
      "inputs": [
        {
          "indexed": true,
          "internalType": "uint256",
          "name": "tokenId",
          "type": "uint256"
        },
        {
          "indexed": false,
          "internalType": "string",
          "name": "assetType",
          "type": "string"
        },
        {
          "indexed": false,
          "internalType": "uint256",
          "name": "value",
          "type": "uint256"
        },
        {
          "indexed": false,
          "internalType": "address",
          "name": "creator",
          "type": "address"
        }
      ],
      "name": "AssetRegistered",
      "type": "event"
    },
    {
      "anonymous": false,
      "inputs": [
        {
          "indexed": true,
          "internalType": "address",
          "name": "previousOwner",
          "type": "address"
        },
        {
          "indexed": true,
          "internalType": "address",
          "name": "newOwner",
          "type": "address"
        }
      ],
      "name": "OwnershipTransferred",
      "type": "event"
    },
    {
      "inputs": [
        {
          "internalType": "uint256",
          "name": "",
          "type": "uint256"
        }
      ],
      "name": "allAssetIds",
      "outputs": [
        {
          "internalType": "uint256",
          "name": "",
          "type": "uint256"
        }
      ],
      "stateMutability": "view",
      "type": "function"
    },
    {
      "inputs": [
        {
          "internalType": "uint256",
          "name": "",
          "type": "uint256"
        }
      ],
      "name": "assets",
      "outputs": [
        {
          "internalType": "string",
          "name": "assetType",
          "type": "string"
        },
        {
          "internalType": "uint256",
          "name": "value",
          "type": "uint256"
        },
        {
          "internalType": "string",
          "name": "metadataJson",
          "type": "string"
        },
        {
          "internalType": "bool",
          "name": "isRegulated",
          "type": "bool"
        },
        {
          "internalType": "uint256",
          "name": "timestamp",
          "type": "uint256"
        },
        {
          "internalType": "address",
          "name": "creator",
          "type": "address"
        }
      ],
      "stateMutability": "view",
      "type": "function"
    },
    {
      "inputs": [],
      "name": "getAllAssets",
      "outputs": [
        {
          "internalType": "uint256[]",
          "name": "",
          "type": "uint256[]"
        }
      ],
      "stateMutability": "view",
      "type": "function"
    },
    {
      "inputs": [
        {
          "internalType": "uint256",
          "name": "tokenId",
          "type": "uint256"
        }
      ],
      "name": "getAsset",
      "outputs": [
        {
          "components": [
            {
              "internalType": "string",
              "name": "assetType",
              "type": "string"
            },
            {
              "internalType": "uint256",
              "name": "value",
              "type": "uint256"
            },
            {
              "internalType": "string",
              "name": "metadataJson",
              "type": "string"
            },
            {
              "internalType": "bool",
              "name": "isRegulated",
              "type": "bool"
            },
            {
              "internalType": "uint256",
              "name": "timestamp",
              "type": "uint256"
            },
            {
              "internalType": "address",
              "name": "creator",
              "type": "address"
            }
          ],
          "internalType": "struct RWARegistry.AssetMetadata",
          "name": "",
          "type": "tuple"
        }
      ],
      "stateMutability": "view",
      "type": "function"
    },
    {
      "inputs": [],
      "name": "owner",
      "outputs": [
        {
          "internalType": "address",
          "name": "",
          "type": "address"
        }
      ],
      "stateMutability": "view",
      "type": "function"
    },
    {
      "inputs": [
        {
          "internalType": "uint256",
          "name": "tokenId",
          "type": "uint256"
        },
        {
          "internalType": "string",
          "name": "assetType",
          "type": "string"
        },
        {
          "internalType": "uint256",
          "name": "value",
          "type": "uint256"
        },
        {
          "internalType": "string",
          "name": "metadataJson",
          "type": "string"
        },
        {
          "internalType": "bool",
          "name": "isRegulated",
          "type": "bool"
        }
      ],
      "name": "registerAsset",
      "outputs": [],
      "stateMutability": "nonpayable",
      "type": "function"
    },
    {
      "inputs": [],
      "name": "renounceOwnership",
      "outputs": [],
      "stateMutability": "nonpayable",
      "type": "function"
    },
    {
      "inputs": [
        {
          "internalType": "address",
          "name": "newOwner",
          "type": "address"
        }
      ],
      "name": "transferOwnership",
      "outputs": [],
      "stateMutability": "nonpayable",
      "type": "function"
    }
  ],
  "bytecode": "0x608060405234801561001057600080fd5b50338061003757604051631e4fbdf760e01b81526000600482015260240160405180910390fd5b61004081610046565b50610096565b600080546001600160a01b038381166001600160a01b0319831681178455604051919092169283917f8be0079c531659141344cd1fd0a4f28419497f9722a3daafe3b4186f6b6457e09190a35050565b610b6e806100a56000396000f3fe608060405234801561001057600080fd5b50600436106100885760003560e01c8063d27a82501161005b578063d27a8250146100f5578063e814d66b14610108578063eac8f5b814610129578063f2fde38b1461014957600080fd5b80632acada4d1461008d578063715018a6146100ab5780638da5cb5b146100b5578063cf35bdd0146100d0575b600080fd5b61009561015c565b6040516100a291906106e8565b60405180910390f35b6100b36101b4565b005b6000546040516001600160a01b0390911681526020016100a2565b6100e36100de36600461072c565b6101c8565b6040516100a29695949392919061078b565b6100b3610103366004610881565b61031b565b61011b61011636600461072c565b61044a565b6040519081526020016100a2565b61013c61013736600461072c565b61046b565b6040516100a29190610912565b6100b361015736600461098a565b610628565b606060028054806020026020016040519081016040528092919081815260200182805480156101aa57602002820191906000526020600020905b815481526020019060010190808311610196575b5050505050905090565b6101bc61066b565b6101c66000610698565b565b6001602052600090815260409020805481906101e3906109ba565b80601f016020809104026020016040519081016040528092919081815260200182805461020f906109ba565b801561025c5780601f106102315761010080835404028352916020019161025c565b820191906000526020600020905b81548152906001019060200180831161023f57829003601f168201915b505050505090806001015490806002018054610277906109ba565b80601f01602080910402602001604051908101604052809291908181526020018280546102a3906109ba565b80156102f05780601f106102c5576101008083540402835291602001916102f0565b820191906000526020600020905b8154815290600101906020018083116102d357829003601f168201915b5050505060038301546004840154600590940154929360ff909116929091506001600160a01b031686565b6040805160c081018252858152602080820186905281830185905283151560608301524260808301523360a08301526000888152600190915291909120815181906103669082610a45565b5060208201516001820155604082015160028201906103859082610a45565b50606082015160038201805460ff19169115159190911790556080820151600482015560a090910151600590910180546001600160a01b0319166001600160a01b03909216919091179055600280546001810182556000919091527f405787fa12a823e0f2b7631cc41b3ba8828b3321ca811111fa75cd3aa3bb5ace0185905560405185907fe0260522a98ce785f3a36a80f374a55bcdbb080a0d2abdaea454e025f09345ab9061043b90879087903390610b05565b60405180910390a25050505050565b6002818154811061045a57600080fd5b600091825260209091200154905081565b6104af6040518060c001604052806060815260200160008152602001606081526020016000151581526020016000815260200160006001600160a01b031681525090565b60008281526001602052604090819020815160c081019092528054829082906104d7906109ba565b80601f0160208091040260200160405190810160405280929190818152602001828054610503906109ba565b80156105505780601f1061052557610100808354040283529160200191610550565b820191906000526020600020905b81548152906001019060200180831161053357829003601f168201915b5050505050815260200160018201548152602001600282018054610573906109ba565b80601f016020809104026020016040519081016040528092919081815260200182805461059f906109ba565b80156105ec5780601f106105c1576101008083540402835291602001916105ec565b820191906000526020600020905b8154815290600101906020018083116105cf57829003601f168201915b5050509183525050600382015460ff1615156020820152600482015460408201526005909101546001600160a01b031660609091015292915050565b61063061066b565b6001600160a01b03811661065f57604051631e4fbdf760e01b8152600060048201526024015b60405180910390fd5b61066881610698565b50565b6000546001600160a01b031633146101c65760405163118cdaa760e01b8152336004820152602401610656565b600080546001600160a01b038381166001600160a01b0319831681178455604051919092169283917f8be0079c531659141344cd1fd0a4f28419497f9722a3daafe3b4186f6b6457e09190a35050565b6020808252825182820181905260009190848201906040850190845b8181101561072057835183529284019291840191600101610704565b50909695505050505050565b60006020828403121561073e57600080fd5b5035919050565b6000815180845260005b8181101561076b5760208185018101518683018201520161074f565b506000602082860101526020601f19601f83011685010191505092915050565b60c08152600061079e60c0830189610745565b87602084015282810360408401526107b68188610745565b9515156060840152505060808101929092526001600160a01b031660a0909101529392505050565b634e487b7160e01b600052604160045260246000fd5b600082601f83011261080557600080fd5b813567ffffffffffffffff80821115610820576108206107de565b604051601f8301601f19908116603f01168101908282118183101715610848576108486107de565b8160405283815286602085880101111561086157600080fd5b836020870160208301376000602085830101528094505050505092915050565b600080600080600060a0868803121561089957600080fd5b85359450602086013567ffffffffffffffff808211156108b857600080fd5b6108c489838a016107f4565b95506040880135945060608801359150808211156108e157600080fd5b506108ee888289016107f4565b9250506080860135801515811461090457600080fd5b809150509295509295909350565b602081526000825160c0602084015261092e60e0840182610745565b9050602084015160408401526040840151601f198483030160608501526109558282610745565b915050606084015115156080840152608084015160a084015260018060a01b0360a08501511660c08401528091505092915050565b60006020828403121561099c57600080fd5b81356001600160a01b03811681146109b357600080fd5b9392505050565b600181811c908216806109ce57607f821691505b6020821081036109ee57634e487b7160e01b600052602260045260246000fd5b50919050565b601f821115610a40576000816000526020600020601f850160051c81016020861015610a1d5750805b601f850160051c820191505b81811015610a3c57828155600101610a29565b5050505b505050565b815167ffffffffffffffff811115610a5f57610a5f6107de565b610a7381610a6d84546109ba565b846109f4565b602080601f831160018114610aa85760008415610a905750858301515b600019600386901b1c1916600185901b178555610a3c565b600085815260208120601f198616915b82811015610ad757888601518255948401946001909101908401610ab8565b5085821015610af55787850151600019600388901b60f8161c191681555b5050505050600190811b01905550565b606081526000610b186060830186610745565b6020830194909452506001600160a01b039190911660409091015291905056fea2646970667358221220e2835ff1725dd1ce78517cf2f30fadf69c6a19d634ea3f2643c8593931de853a64736f6c63430008180033",
  "linkReferences": {},
  "deployedLinkReferences": {}
}